{
  "_format": "hh-sol-artifact-1",
  "contractName": "GradeRegistry",
  "sourceName": "contracts/GradeRegistry.sol",
  "abi": [
    {
      "inputs": [],
      "stateMutability": "nonpayable",
      "type": "constructor"
    },
    {
      "inputs": [
        {
          "internalType": "bytes32",
          "name": "gradeId",
          "type": "bytes32"
        }
      ],
      "name": "getGradeHistory",
      "outputs": [
        {
          "components": [
            {
              "internalType": "bytes32",
              "name": "id",
              "type": "bytes32"
            },
            {
              "internalType": "string",
              "name": "student",
              "type": "string"
            },
            {
              "internalType": "string",
              "name": "discipline",
              "type": "string"
            },
            {
              "internalType": "uint256",
              "name": "grade",
              "type": "uint256"
            },
            {
              "internalType": "uint256",
              "name": "timestamp",
              "type": "uint256"
            },
            {
              "internalType": "string",
              "name": "document",
              "type": "string"
            },
            {
              "internalType": "address",
              "name": "from",
              "type": "address"
            }
          ],
          "internalType": "struct GradeRegistry.Grade[]",
          "name": "",
          "type": "tuple[]"
        }
      ],
      "stateMutability": "view",
      "type": "function"
    },
    {
      "inputs": [],
      "name": "getGrades",
      "outputs": [
        {
          "components": [
            {
              "internalType": "bytes32",
              "name": "id",
              "type": "bytes32"
            },
            {
              "internalType": "string",
              "name": "student",
              "type": "string"
            },
            {
              "internalType": "string",
              "name": "discipline",
              "type": "string"
            },
            {
              "internalType": "uint256",
              "name": "grade",
              "type": "uint256"
            },
            {
              "internalType": "uint256",
              "name": "timestamp",
              "type": "uint256"
            },
            {
              "internalType": "string",
              "name": "document",
              "type": "string"
            },
            {
              "internalType": "address",
              "name": "from",
              "type": "address"
            }
          ],
          "internalType": "struct GradeRegistry.Grade[]",
          "name": "",
          "type": "tuple[]"
        }
      ],
      "stateMutability": "view",
      "type": "function"
    },
    {
      "inputs": [
        {
          "internalType": "uint256",
          "name": "",
          "type": "uint256"
        }
      ],
      "name": "grades",
      "outputs": [
        {
          "internalType": "bytes32",
          "name": "id",
          "type": "bytes32"
        },
        {
          "internalType": "string",
          "name": "student",
          "type": "string"
        },
        {
          "internalType": "string",
          "name": "discipline",
          "type": "string"
        },
        {
          "internalType": "uint256",
          "name": "grade",
          "type": "uint256"
        },
        {
          "internalType": "uint256",
          "name": "timestamp",
          "type": "uint256"
        },
        {
          "internalType": "string",
          "name": "document",
          "type": "string"
        },
        {
          "internalType": "address",
          "name": "from",
          "type": "address"
        }
      ],
      "stateMutability": "view",
      "type": "function"
    },
    {
      "inputs": [
        {
          "internalType": "string",
          "name": "student",
          "type": "string"
        },
        {
          "internalType": "string",
          "name": "discipline",
          "type": "string"
        },
        {
          "internalType": "uint256",
          "name": "grade",
          "type": "uint256"
        },
        {
          "internalType": "string",
          "name": "document",
          "type": "string"
        }
      ],
      "name": "submitGradeWithFee",
      "outputs": [],
      "stateMutability": "payable",
      "type": "function"
    },
    {
      "inputs": [
        {
          "internalType": "bytes32",
          "name": "gradeId",
          "type": "bytes32"
        },
        {
          "internalType": "string",
          "name": "student",
          "type": "string"
        },
        {
          "internalType": "string",
          "name": "discipline",
          "type": "string"
        },
        {
          "internalType": "uint256",
          "name": "gradeValue",
          "type": "uint256"
        },
        {
          "internalType": "string",
          "name": "document",
          "type": "string"
        }
      ],
      "name": "updateGrade",
      "outputs": [],
      "stateMutability": "nonpayable",
      "type": "function"
    }
  ],
  "bytecode": "0x608060405234801561001057600080fd5b5033600260006101000a81548173ffffffffffffffffffffffffffffffffffffffff021916908373ffffffffffffffffffffffffffffffffffffffff160217905550611f02806100616000396000f3fe60806040526004361061004a5760003560e01c80631f2ab3b71461004f5780634b22fc621461006b57806352780147146100ae5780636b12a705146100eb578063b77ea2d714610114575b600080fd5b610069600480360381019061006491906110f5565b61013f565b005b34801561007757600080fd5b50610092600480360381019061008d91906111be565b61056e565b6040516100a597969594939291906112e4565b60405180910390f35b3480156100ba57600080fd5b506100d560048036038101906100d09190611394565b610778565b6040516100e291906115a4565b60405180910390f35b3480156100f757600080fd5b50610112600480360381019061010d91906115c6565b610a73565b005b34801561012057600080fd5b50610129610ced565b60405161013691906115a4565b60405180910390f35b60003411610182576040517f08c379a0000000000000000000000000000000000000000000000000000000008152600401610179906116ee565b60405180910390fd5b600260009054906101000a900473ffffffffffffffffffffffffffffffffffffffff1673ffffffffffffffffffffffffffffffffffffffff166108fc349081150290604051600060405180830381858888f193505050501580156101ea573d6000803e3d6000fd5b506000429050600061028989898080601f016020809104026020016040519081016040528093929190818152602001838380828437600081840152601f19601f8201169050808301925050505050505088888080601f016020809104026020016040519081016040528093929190818152602001838380828437600081840152601f19601f820116905080830192505050505050508787873388610f76565b905060006040518060e001604052808381526020018b8b8080601f016020809104026020016040519081016040528093929190818152602001838380828437600081840152601f19601f82011690508083019250505050505050815260200189898080601f016020809104026020016040519081016040528093929190818152602001838380828437600081840152601f19601f82011690508083019250505050505050815260200187815260200184815260200186868080601f016020809104026020016040519081016040528093929190818152602001838380828437600081840152601f19601f8201169050808301925050505050505081526020013373ffffffffffffffffffffffffffffffffffffffff16815250905060008190806001815401808255809150506001900390600052602060002090600702016000909190919091506000820151816000015560208201518160010190816103ef9190611949565b5060408201518160020190816104059190611949565b50606082015181600301556080820151816004015560a082015181600501908161042f9190611949565b5060c08201518160060160006101000a81548173ffffffffffffffffffffffffffffffffffffffff021916908373ffffffffffffffffffffffffffffffffffffffff1602179055505050600160008381526020019081526020016000206000018190806001815401808255809150506001900390600052602060002090600702016000909190919091506000820151816000015560208201518160010190816104d89190611949565b5060408201518160020190816104ee9190611949565b50606082015181600301556080820151816004015560a08201518160050190816105189190611949565b5060c08201518160060160006101000a81548173ffffffffffffffffffffffffffffffffffffffff021916908373ffffffffffffffffffffffffffffffffffffffff160217905550505050505050505050505050565b6000818154811061057e57600080fd5b90600052602060002090600702016000915090508060000154908060010180546105a79061176c565b80601f01602080910402602001604051908101604052809291908181526020018280546105d39061176c565b80156106205780601f106105f557610100808354040283529160200191610620565b820191906000526020600020905b81548152906001019060200180831161060357829003601f168201915b5050505050908060020180546106359061176c565b80601f01602080910402602001604051908101604052809291908181526020018280546106619061176c565b80156106ae5780601f10610683576101008083540402835291602001916106ae565b820191906000526020600020905b81548152906001019060200180831161069157829003601f168201915b5050505050908060030154908060040154908060050180546106cf9061176c565b80601f01602080910402602001604051908101604052809291908181526020018280546106fb9061176c565b80156107485780601f1061071d57610100808354040283529160200191610748565b820191906000526020600020905b81548152906001019060200180831161072b57829003601f168201915b5050505050908060060160009054906101000a900473ffffffffffffffffffffffffffffffffffffffff16905087565b606060006001600084815260200190815260200160002060000180549050116107d6576040517f08c379a00000000000000000000000000000000000000000000000000000000081526004016107cd90611a67565b60405180910390fd5b60016000838152602001908152602001600020600001805480602002602001604051908101604052809291908181526020016000905b82821015610a6857838290600052602060002090600702016040518060e0016040529081600082015481526020016001820180546108499061176c565b80601f01602080910402602001604051908101604052809291908181526020018280546108759061176c565b80156108c25780601f10610897576101008083540402835291602001916108c2565b820191906000526020600020905b8154815290600101906020018083116108a557829003601f168201915b505050505081526020016002820180546108db9061176c565b80601f01602080910402602001604051908101604052809291908181526020018280546109079061176c565b80156109545780601f1061092957610100808354040283529160200191610954565b820191906000526020600020905b81548152906001019060200180831161093757829003601f168201915b5050505050815260200160038201548152602001600482015481526020016005820180546109819061176c565b80601f01602080910402602001604051908101604052809291908181526020018280546109ad9061176c565b80156109fa5780601f106109cf576101008083540402835291602001916109fa565b820191906000526020600020905b8154815290600101906020018083116109dd57829003601f168201915b505050505081526020016006820160009054906101000a900473ffffffffffffffffffffffffffffffffffffffff1673ffffffffffffffffffffffffffffffffffffffff1673ffffffffffffffffffffffffffffffffffffffff16815250508152602001906001019061080c565b505050509050919050565b6000600160008a81526020019081526020016000206000018054905011610acf576040517f08c379a0000000000000000000000000000000000000000000000000000000008152600401610ac690611a67565b60405180910390fd5b600080610adb8a610fb8565b81548110610aec57610aeb611a87565b5b906000526020600020906007020190503373ffffffffffffffffffffffffffffffffffffffff168160060160009054906101000a900473ffffffffffffffffffffffffffffffffffffffff1673ffffffffffffffffffffffffffffffffffffffff1614610b8e576040517f08c379a0000000000000000000000000000000000000000000000000000000008152600401610b8590611b28565b60405180910390fd5b600160008a81526020019081526020016000206000018190806001815401808255809150506001900390600052602060002090600702016000909190919091506000820154816000015560018201816001019081610bec9190611b5e565b5060028201816002019081610c019190611b5e565b50600382015481600301556004820154816004015560058201816005019081610c2a9190611b5e565b506006820160009054906101000a900473ffffffffffffffffffffffffffffffffffffffff168160060160006101000a81548173ffffffffffffffffffffffffffffffffffffffff021916908373ffffffffffffffffffffffffffffffffffffffff16021790555050508787826001019182610ca7929190611c51565b508585826002019182610cbb929190611c51565b508381600301819055508282826005019182610cd8929190611c51565b50428160040181905550505050505050505050565b60606000805480602002602001604051908101604052809291908181526020016000905b82821015610f6d57838290600052602060002090600702016040518060e001604052908160008201548152602001600182018054610d4e9061176c565b80601f0160208091040260200160405190810160405280929190818152602001828054610d7a9061176c565b8015610dc75780601f10610d9c57610100808354040283529160200191610dc7565b820191906000526020600020905b815481529060010190602001808311610daa57829003601f168201915b50505050508152602001600282018054610de09061176c565b80601f0160208091040260200160405190810160405280929190818152602001828054610e0c9061176c565b8015610e595780601f10610e2e57610100808354040283529160200191610e59565b820191906000526020600020905b815481529060010190602001808311610e3c57829003601f168201915b505050505081526020016003820154815260200160048201548152602001600582018054610e869061176c565b80601f0160208091040260200160405190810160405280929190818152602001828054610eb29061176c565b8015610eff5780601f10610ed457610100808354040283529160200191610eff565b820191906000526020600020905b815481529060010190602001808311610ee257829003601f168201915b505050505081526020016006820160009054906101000a900473ffffffffffffffffffffffffffffffffffffffff1673ffffffffffffffffffffffffffffffffffffffff1673ffffffffffffffffffffffffffffffffffffffff168152505081526020019060010190610d11565b50505050905090565b600087878787878787604051602001610f959796959493929190611dfa565b604051602081830303815290604052805190602001209050979650505050505050565b600080600090505b60008054905081101561100f578260008281548110610fe257610fe1611a87565b5b90600052602060002090600702016000015403611002578091505061104b565b8080600101915050610fc0565b506040517f08c379a000000000000000000000000000000000000000000000000000000000815260040161104290611eac565b60405180910390fd5b919050565b600080fd5b600080fd5b600080fd5b600080fd5b600080fd5b60008083601f84011261107f5761107e61105a565b5b8235905067ffffffffffffffff81111561109c5761109b61105f565b5b6020830191508360018202830111156110b8576110b7611064565b5b9250929050565b6000819050919050565b6110d2816110bf565b81146110dd57600080fd5b50565b6000813590506110ef816110c9565b92915050565b60008060008060008060006080888a03121561111457611113611050565b5b600088013567ffffffffffffffff81111561113257611131611055565b5b61113e8a828b01611069565b9750975050602088013567ffffffffffffffff81111561116157611160611055565b5b61116d8a828b01611069565b955095505060406111808a828b016110e0565b935050606088013567ffffffffffffffff8111156111a1576111a0611055565b5b6111ad8a828b01611069565b925092505092959891949750929550565b6000602082840312156111d4576111d3611050565b5b60006111e2848285016110e0565b91505092915050565b6000819050919050565b6111fe816111eb565b82525050565b600081519050919050565b600082825260208201905092915050565b60005b8381101561123e578082015181840152602081019050611223565b60008484015250505050565b6000601f19601f8301169050919050565b600061126682611204565b611270818561120f565b9350611280818560208601611220565b6112898161124a565b840191505092915050565b61129d816110bf565b82525050565b600073ffffffffffffffffffffffffffffffffffffffff82169050919050565b60006112ce826112a3565b9050919050565b6112de816112c3565b82525050565b600060e0820190506112f9600083018a6111f5565b818103602083015261130b818961125b565b9050818103604083015261131f818861125b565b905061132e6060830187611294565b61133b6080830186611294565b81810360a083015261134d818561125b565b905061135c60c08301846112d5565b98975050505050505050565b611371816111eb565b811461137c57600080fd5b50565b60008135905061138e81611368565b92915050565b6000602082840312156113aa576113a9611050565b5b60006113b88482850161137f565b91505092915050565b600081519050919050565b600082825260208201905092915050565b6000819050602082019050919050565b6113f6816111eb565b82525050565b600082825260208201905092915050565b600061141882611204565b61142281856113fc565b9350611432818560208601611220565b61143b8161124a565b840191505092915050565b61144f816110bf565b82525050565b61145e816112c3565b82525050565b600060e08301600083015161147c60008601826113ed565b5060208301518482036020860152611494828261140d565b915050604083015184820360408601526114ae828261140d565b91505060608301516114c36060860182611446565b5060808301516114d66080860182611446565b5060a083015184820360a08601526114ee828261140d565b91505060c083015161150360c0860182611455565b508091505092915050565b600061151a8383611464565b905092915050565b6000602082019050919050565b600061153a826113c1565b61154481856113cc565b935083602082028501611556856113dd565b8060005b858110156115925784840389528151611573858261150e565b945061157e83611522565b925060208a0199505060018101905061155a565b50829750879550505050505092915050565b600060208201905081810360008301526115be818461152f565b905092915050565b60008060008060008060008060a0898b0312156115e6576115e5611050565b5b60006115f48b828c0161137f565b985050602089013567ffffffffffffffff81111561161557611614611055565b5b6116218b828c01611069565b9750975050604089013567ffffffffffffffff81111561164457611643611055565b5b6116508b828c01611069565b955095505060606116638b828c016110e0565b935050608089013567ffffffffffffffff81111561168457611683611055565b5b6116908b828c01611069565b92509250509295985092959890939650565b7f506c6561736520706179206d6f7265207468616e203020657468657200000000600082015250565b60006116d8601c8361120f565b91506116e3826116a2565b602082019050919050565b60006020820190508181036000830152611707816116cb565b9050919050565b7f4e487b7100000000000000000000000000000000000000000000000000000000600052604160045260246000fd5b7f4e487b7100000000000000000000000000000000000000000000000000000000600052602260045260246000fd5b6000600282049050600182168061178457607f821691505b6020821081036117975761179661173d565b5b50919050565b60008190508160005260206000209050919050565b60006020601f8301049050919050565b600082821b905092915050565b6000600883026117ff7fffffffffffffffffffffffffffffffffffffffffffffffffffffffffffffffff826117c2565b61180986836117c2565b95508019841693508086168417925050509392505050565b6000819050919050565b600061184661184161183c846110bf565b611821565b6110bf565b9050919050565b6000819050919050565b6118608361182b565b61187461186c8261184d565b8484546117cf565b825550505050565b600090565b61188961187c565b611894818484611857565b505050565b5b818110156118b8576118ad600082611881565b60018101905061189a565b5050565b601f8211156118fd576118ce8161179d565b6118d7846117b2565b810160208510156118e6578190505b6118fa6118f2856117b2565b830182611899565b50505b505050565b600082821c905092915050565b600061192060001984600802611902565b1980831691505092915050565b6000611939838361190f565b9150826002028217905092915050565b61195282611204565b67ffffffffffffffff81111561196b5761196a61170e565b5b611975825461176c565b6119808282856118bc565b600060209050601f8311600181146119b357600084156119a1578287015190505b6119ab858261192d565b865550611a13565b601f1984166119c18661179d565b60005b828110156119e9578489015182556001820191506020850194506020810190506119c4565b86831015611a065784890151611a02601f89168261190f565b8355505b6001600288020188555050505b505050505050565b7f496e76616c696420494400000000000000000000000000000000000000000000600082015250565b6000611a51600a8361120f565b9150611a5c82611a1b565b602082019050919050565b60006020820190508181036000830152611a8081611a44565b9050919050565b7f4e487b7100000000000000000000000000000000000000000000000000000000600052603260045260246000fd5b7f596f752063616e206f6e6c792075706461746520796f7572206f776e2067726160008201527f6465730000000000000000000000000000000000000000000000000000000000602082015250565b6000611b1260238361120f565b9150611b1d82611ab6565b604082019050919050565b60006020820190508181036000830152611b4181611b05565b9050919050565b600081549050611b578161176c565b9050919050565b818103611b6c575050611c44565b611b7582611b48565b67ffffffffffffffff811115611b8e57611b8d61170e565b5b611b98825461176c565b611ba38282856118bc565b6000601f831160018114611bd25760008415611bc0578287015490505b611bca858261192d565b865550611c3d565b601f198416611be08761179d565b9650611beb8661179d565b60005b82811015611c1357848901548255600182019150600185019450602081019050611bee565b86831015611c305784890154611c2c601f89168261190f565b8355505b6001600288020188555050505b5050505050505b565b600082905092915050565b611c5b8383611c46565b67ffffffffffffffff811115611c7457611c7361170e565b5b611c7e825461176c565b611c898282856118bc565b6000601f831160018114611cb85760008415611ca6578287013590505b611cb0858261192d565b865550611d18565b601f198416611cc68661179d565b60005b82811015611cee57848901358255600182019150602085019450602081019050611cc9565b86831015611d0b5784890135611d07601f89168261190f565b8355505b6001600288020188555050505b50505050505050565b600081905092915050565b6000611d3782611204565b611d418185611d21565b9350611d51818560208601611220565b80840191505092915050565b6000819050919050565b611d78611d73826110bf565b611d5d565b82525050565b82818337600083830152505050565b6000611d998385611d21565b9350611da6838584611d7e565b82840190509392505050565b60008160601b9050919050565b6000611dca82611db2565b9050919050565b6000611ddc82611dbf565b9050919050565b611df4611def826112c3565b611dd1565b82525050565b6000611e06828a611d2c565b9150611e128289611d2c565b9150611e1e8288611d67565b602082019150611e2f828688611d8d565b9150611e3b8285611de3565b601482019150611e4b8284611d67565b60208201915081905098975050505050505050565b7f4772616465206e6f7420666f756e640000000000000000000000000000000000600082015250565b6000611e96600f8361120f565b9150611ea182611e60565b602082019050919050565b60006020820190508181036000830152611ec581611e89565b905091905056fea2646970667358221220e4b9259a57423cb7c4074765d91ce9103bb890cb3375fb1fb4014d0be3d60eb864736f6c63430008180033",
  "linkReferences": {},
  "deployedLinkReferences": {}
}