{
  "_format": "hh-sol-artifact-1",
  "contractName": "GradeRegistry",
  "sourceName": "contracts/GradeRegistry.sol",
  "abi": [
    {
      "inputs": [],
      "stateMutability": "nonpayable",
      "type": "constructor"
    },
    {
      "inputs": [
        {
          "internalType": "bytes32",
          "name": "gradeId",
          "type": "bytes32"
        }
      ],
      "name": "getGradeHistory",
      "outputs": [
        {
          "components": [
            {
              "internalType": "bytes32",
              "name": "id",
              "type": "bytes32"
            },
            {
              "internalType": "string",
              "name": "student",
              "type": "string"
            },
            {
              "internalType": "string",
              "name": "discipline",
              "type": "string"
            },
            {
              "internalType": "uint256",
              "name": "grade",
              "type": "uint256"
            },
            {
              "internalType": "uint256",
              "name": "timestamp",
              "type": "uint256"
            },
            {
              "internalType": "address",
              "name": "document",
              "type": "address"
            },
            {
              "internalType": "address",
              "name": "from",
              "type": "address"
            }
          ],
          "internalType": "struct GradeRegistry.Grade[]",
          "name": "",
          "type": "tuple[]"
        }
      ],
      "stateMutability": "view",
      "type": "function"
    },
    {
      "inputs": [],
      "name": "getGrades",
      "outputs": [
        {
          "components": [
            {
              "internalType": "bytes32",
              "name": "id",
              "type": "bytes32"
            },
            {
              "internalType": "string",
              "name": "student",
              "type": "string"
            },
            {
              "internalType": "string",
              "name": "discipline",
              "type": "string"
            },
            {
              "internalType": "uint256",
              "name": "grade",
              "type": "uint256"
            },
            {
              "internalType": "uint256",
              "name": "timestamp",
              "type": "uint256"
            },
            {
              "internalType": "address",
              "name": "document",
              "type": "address"
            },
            {
              "internalType": "address",
              "name": "from",
              "type": "address"
            }
          ],
          "internalType": "struct GradeRegistry.Grade[]",
          "name": "",
          "type": "tuple[]"
        }
      ],
      "stateMutability": "view",
      "type": "function"
    },
    {
      "inputs": [
        {
          "internalType": "uint256",
          "name": "",
          "type": "uint256"
        }
      ],
      "name": "grades",
      "outputs": [
        {
          "internalType": "bytes32",
          "name": "id",
          "type": "bytes32"
        },
        {
          "internalType": "string",
          "name": "student",
          "type": "string"
        },
        {
          "internalType": "string",
          "name": "discipline",
          "type": "string"
        },
        {
          "internalType": "uint256",
          "name": "grade",
          "type": "uint256"
        },
        {
          "internalType": "uint256",
          "name": "timestamp",
          "type": "uint256"
        },
        {
          "internalType": "address",
          "name": "document",
          "type": "address"
        },
        {
          "internalType": "address",
          "name": "from",
          "type": "address"
        }
      ],
      "stateMutability": "view",
      "type": "function"
    },
    {
      "inputs": [
        {
          "internalType": "string",
          "name": "student",
          "type": "string"
        },
        {
          "internalType": "string",
          "name": "discipline",
          "type": "string"
        },
        {
          "internalType": "uint256",
          "name": "grade",
          "type": "uint256"
        },
        {
          "internalType": "address",
          "name": "document",
          "type": "address"
        }
      ],
      "name": "submitGradeWithFee",
      "outputs": [],
      "stateMutability": "payable",
      "type": "function"
    },
    {
      "inputs": [
        {
          "internalType": "bytes32",
          "name": "gradeId",
          "type": "bytes32"
        },
        {
          "internalType": "string",
          "name": "student",
          "type": "string"
        },
        {
          "internalType": "string",
          "name": "discipline",
          "type": "string"
        },
        {
          "internalType": "uint256",
          "name": "gradeValue",
          "type": "uint256"
        },
        {
          "internalType": "address",
          "name": "document",
          "type": "address"
        }
      ],
      "name": "updateGrade",
      "outputs": [],
      "stateMutability": "nonpayable",
      "type": "function"
    }
  ],
  "bytecode": "0x608060405234801561001057600080fd5b5033600260006101000a81548173ffffffffffffffffffffffffffffffffffffffff021916908373ffffffffffffffffffffffffffffffffffffffff160217905550611e7b806100616000396000f3fe60806040526004361061004a5760003560e01c80634b22fc621461004f5780634f6a2c731461009257806352780147146100ae578063b77ea2d7146100eb578063dca2a3e514610116575b600080fd5b34801561005b57600080fd5b506100766004803603810190610071919061105f565b61013f565b6040516100899796959493929190611185565b60405180910390f35b6100ac60048036038101906100a79190611293565b6102e1565b005b3480156100ba57600080fd5b506100d560048036038101906100d09190611366565b610742565b6040516100e2919061156f565b60405180910390f35b3480156100f757600080fd5b50610100610a01565b60405161010d919061156f565b60405180910390f35b34801561012257600080fd5b5061013d60048036038101906101389190611591565b610c4e565b005b6000818154811061014f57600080fd5b90600052602060002090600702016000915090508060000154908060010180546101789061167c565b80601f01602080910402602001604051908101604052809291908181526020018280546101a49061167c565b80156101f15780601f106101c6576101008083540402835291602001916101f1565b820191906000526020600020905b8154815290600101906020018083116101d457829003601f168201915b5050505050908060020180546102069061167c565b80601f01602080910402602001604051908101604052809291908181526020018280546102329061167c565b801561027f5780601f106102545761010080835404028352916020019161027f565b820191906000526020600020905b81548152906001019060200180831161026257829003601f168201915b5050505050908060030154908060040154908060050160009054906101000a900473ffffffffffffffffffffffffffffffffffffffff16908060060160009054906101000a900473ffffffffffffffffffffffffffffffffffffffff16905087565b60003411610324576040517f08c379a000000000000000000000000000000000000000000000000000000000815260040161031b906116f9565b60405180910390fd5b600260009054906101000a900473ffffffffffffffffffffffffffffffffffffffff1673ffffffffffffffffffffffffffffffffffffffff166108fc349081150290604051600060405180830381858888f1935050505015801561038c573d6000803e3d6000fd5b506000429050600061042a88888080601f016020809104026020016040519081016040528093929190818152602001838380828437600081840152601f19601f8201169050808301925050505050505087878080601f016020809104026020016040519081016040528093929190818152602001838380828437600081840152601f19601f8201169050808301925050505050505086863387610f48565b905060006040518060e001604052808381526020018a8a8080601f016020809104026020016040519081016040528093929190818152602001838380828437600081840152601f19601f82011690508083019250505050505050815260200188888080601f016020809104026020016040519081016040528093929190818152602001838380828437600081840152601f19601f8201169050808301925050505050505081526020018681526020018481526020018573ffffffffffffffffffffffffffffffffffffffff1681526020013373ffffffffffffffffffffffffffffffffffffffff168152509050600081908060018154018082558091505060019003906000526020600020906007020160009091909190915060008201518160000155602082015181600101908161056291906118f4565b50604082015181600201908161057891906118f4565b50606082015181600301556080820151816004015560a08201518160050160006101000a81548173ffffffffffffffffffffffffffffffffffffffff021916908373ffffffffffffffffffffffffffffffffffffffff16021790555060c08201518160060160006101000a81548173ffffffffffffffffffffffffffffffffffffffff021916908373ffffffffffffffffffffffffffffffffffffffff16021790555050506001600083815260200190815260200160002060000181908060018154018082558091505060019003906000526020600020906007020160009091909190915060008201518160000155602082015181600101908161067c91906118f4565b50604082015181600201908161069291906118f4565b50606082015181600301556080820151816004015560a08201518160050160006101000a81548173ffffffffffffffffffffffffffffffffffffffff021916908373ffffffffffffffffffffffffffffffffffffffff16021790555060c08201518160060160006101000a81548173ffffffffffffffffffffffffffffffffffffffff021916908373ffffffffffffffffffffffffffffffffffffffff1602179055505050505050505050505050565b606060006001600084815260200190815260200160002060000180549050116107a0576040517f08c379a000000000000000000000000000000000000000000000000000000000815260040161079790611a12565b60405180910390fd5b60016000838152602001908152602001600020600001805480602002602001604051908101604052809291908181526020016000905b828210156109f657838290600052602060002090600702016040518060e0016040529081600082015481526020016001820180546108139061167c565b80601f016020809104026020016040519081016040528092919081815260200182805461083f9061167c565b801561088c5780601f106108615761010080835404028352916020019161088c565b820191906000526020600020905b81548152906001019060200180831161086f57829003601f168201915b505050505081526020016002820180546108a59061167c565b80601f01602080910402602001604051908101604052809291908181526020018280546108d19061167c565b801561091e5780601f106108f35761010080835404028352916020019161091e565b820191906000526020600020905b81548152906001019060200180831161090157829003601f168201915b5050505050815260200160038201548152602001600482015481526020016005820160009054906101000a900473ffffffffffffffffffffffffffffffffffffffff1673ffffffffffffffffffffffffffffffffffffffff1673ffffffffffffffffffffffffffffffffffffffff1681526020016006820160009054906101000a900473ffffffffffffffffffffffffffffffffffffffff1673ffffffffffffffffffffffffffffffffffffffff1673ffffffffffffffffffffffffffffffffffffffff1681525050815260200190600101906107d6565b505050509050919050565b60606000805480602002602001604051908101604052809291908181526020016000905b82821015610c4557838290600052602060002090600702016040518060e001604052908160008201548152602001600182018054610a629061167c565b80601f0160208091040260200160405190810160405280929190818152602001828054610a8e9061167c565b8015610adb5780601f10610ab057610100808354040283529160200191610adb565b820191906000526020600020905b815481529060010190602001808311610abe57829003601f168201915b50505050508152602001600282018054610af49061167c565b80601f0160208091040260200160405190810160405280929190818152602001828054610b209061167c565b8015610b6d5780601f10610b4257610100808354040283529160200191610b6d565b820191906000526020600020905b815481529060010190602001808311610b5057829003601f168201915b5050505050815260200160038201548152602001600482015481526020016005820160009054906101000a900473ffffffffffffffffffffffffffffffffffffffff1673ffffffffffffffffffffffffffffffffffffffff1673ffffffffffffffffffffffffffffffffffffffff1681526020016006820160009054906101000a900473ffffffffffffffffffffffffffffffffffffffff1673ffffffffffffffffffffffffffffffffffffffff1673ffffffffffffffffffffffffffffffffffffffff168152505081526020019060010190610a25565b50505050905090565b6000600160008981526020019081526020016000206000018054905011610caa576040517f08c379a0000000000000000000000000000000000000000000000000000000008152600401610ca190611a12565b60405180910390fd5b600080610cb689610f87565b81548110610cc757610cc6611a32565b5b906000526020600020906007020190503373ffffffffffffffffffffffffffffffffffffffff168160060160009054906101000a900473ffffffffffffffffffffffffffffffffffffffff1673ffffffffffffffffffffffffffffffffffffffff1614610d69576040517f08c379a0000000000000000000000000000000000000000000000000000000008152600401610d6090611ad3565b60405180910390fd5b600160008981526020019081526020016000206000018190806001815401808255809150506001900390600052602060002090600702016000909190919091506000820154816000015560018201816001019081610dc79190611b09565b5060028201816002019081610ddc9190611b09565b5060038201548160030155600482015481600401556005820160009054906101000a900473ffffffffffffffffffffffffffffffffffffffff168160050160006101000a81548173ffffffffffffffffffffffffffffffffffffffff021916908373ffffffffffffffffffffffffffffffffffffffff1602179055506006820160009054906101000a900473ffffffffffffffffffffffffffffffffffffffff168160060160006101000a81548173ffffffffffffffffffffffffffffffffffffffff021916908373ffffffffffffffffffffffffffffffffffffffff16021790555050508686826001019182610ed4929190611bfc565b508484826002019182610ee8929190611bfc565b50828160030181905550818160050160006101000a81548173ffffffffffffffffffffffffffffffffffffffff021916908373ffffffffffffffffffffffffffffffffffffffff1602179055504281600401819055505050505050505050565b6000868686868686604051602001610f6596959493929190611d71565b6040516020818303038152906040528051906020012090509695505050505050565b600080600090505b600080549050811015610fde578260008281548110610fb157610fb0611a32565b5b90600052602060002090600702016000015403610fd1578091505061101a565b8080600101915050610f8f565b506040517f08c379a000000000000000000000000000000000000000000000000000000000815260040161101190611e25565b60405180910390fd5b919050565b600080fd5b600080fd5b6000819050919050565b61103c81611029565b811461104757600080fd5b50565b60008135905061105981611033565b92915050565b6000602082840312156110755761107461101f565b5b60006110838482850161104a565b91505092915050565b6000819050919050565b61109f8161108c565b82525050565b600081519050919050565b600082825260208201905092915050565b60005b838110156110df5780820151818401526020810190506110c4565b60008484015250505050565b6000601f19601f8301169050919050565b6000611107826110a5565b61111181856110b0565b93506111218185602086016110c1565b61112a816110eb565b840191505092915050565b61113e81611029565b82525050565b600073ffffffffffffffffffffffffffffffffffffffff82169050919050565b600061116f82611144565b9050919050565b61117f81611164565b82525050565b600060e08201905061119a600083018a611096565b81810360208301526111ac81896110fc565b905081810360408301526111c081886110fc565b90506111cf6060830187611135565b6111dc6080830186611135565b6111e960a0830185611176565b6111f660c0830184611176565b98975050505050505050565b600080fd5b600080fd5b600080fd5b60008083601f84011261122757611226611202565b5b8235905067ffffffffffffffff81111561124457611243611207565b5b6020830191508360018202830111156112605761125f61120c565b5b9250929050565b61127081611164565b811461127b57600080fd5b50565b60008135905061128d81611267565b92915050565b600080600080600080608087890312156112b0576112af61101f565b5b600087013567ffffffffffffffff8111156112ce576112cd611024565b5b6112da89828a01611211565b9650965050602087013567ffffffffffffffff8111156112fd576112fc611024565b5b61130989828a01611211565b9450945050604061131c89828a0161104a565b925050606061132d89828a0161127e565b9150509295509295509295565b6113438161108c565b811461134e57600080fd5b50565b6000813590506113608161133a565b92915050565b60006020828403121561137c5761137b61101f565b5b600061138a84828501611351565b91505092915050565b600081519050919050565b600082825260208201905092915050565b6000819050602082019050919050565b6113c88161108c565b82525050565b600082825260208201905092915050565b60006113ea826110a5565b6113f481856113ce565b93506114048185602086016110c1565b61140d816110eb565b840191505092915050565b61142181611029565b82525050565b61143081611164565b82525050565b600060e08301600083015161144e60008601826113bf565b506020830151848203602086015261146682826113df565b9150506040830151848203604086015261148082826113df565b91505060608301516114956060860182611418565b5060808301516114a86080860182611418565b5060a08301516114bb60a0860182611427565b5060c08301516114ce60c0860182611427565b508091505092915050565b60006114e58383611436565b905092915050565b6000602082019050919050565b600061150582611393565b61150f818561139e565b935083602082028501611521856113af565b8060005b8581101561155d578484038952815161153e85826114d9565b9450611549836114ed565b925060208a01995050600181019050611525565b50829750879550505050505092915050565b6000602082019050818103600083015261158981846114fa565b905092915050565b600080600080600080600060a0888a0312156115b0576115af61101f565b5b60006115be8a828b01611351565b975050602088013567ffffffffffffffff8111156115df576115de611024565b5b6115eb8a828b01611211565b9650965050604088013567ffffffffffffffff81111561160e5761160d611024565b5b61161a8a828b01611211565b9450945050606061162d8a828b0161104a565b925050608061163e8a828b0161127e565b91505092959891949750929550565b7f4e487b7100000000000000000000000000000000000000000000000000000000600052602260045260246000fd5b6000600282049050600182168061169457607f821691505b6020821081036116a7576116a661164d565b5b50919050565b7f506c6561736520706179206d6f7265207468616e203020657468657200000000600082015250565b60006116e3601c836110b0565b91506116ee826116ad565b602082019050919050565b60006020820190508181036000830152611712816116d6565b9050919050565b7f4e487b7100000000000000000000000000000000000000000000000000000000600052604160045260246000fd5b60008190508160005260206000209050919050565b60006020601f8301049050919050565b600082821b905092915050565b6000600883026117aa7fffffffffffffffffffffffffffffffffffffffffffffffffffffffffffffffff8261176d565b6117b4868361176d565b95508019841693508086168417925050509392505050565b6000819050919050565b60006117f16117ec6117e784611029565b6117cc565b611029565b9050919050565b6000819050919050565b61180b836117d6565b61181f611817826117f8565b84845461177a565b825550505050565b600090565b611834611827565b61183f818484611802565b505050565b5b818110156118635761185860008261182c565b600181019050611845565b5050565b601f8211156118a85761187981611748565b6118828461175d565b81016020851015611891578190505b6118a561189d8561175d565b830182611844565b50505b505050565b600082821c905092915050565b60006118cb600019846008026118ad565b1980831691505092915050565b60006118e483836118ba565b9150826002028217905092915050565b6118fd826110a5565b67ffffffffffffffff81111561191657611915611719565b5b611920825461167c565b61192b828285611867565b600060209050601f83116001811461195e576000841561194c578287015190505b61195685826118d8565b8655506119be565b601f19841661196c86611748565b60005b828110156119945784890151825560018201915060208501945060208101905061196f565b868310156119b157848901516119ad601f8916826118ba565b8355505b6001600288020188555050505b505050505050565b7f496e76616c696420494400000000000000000000000000000000000000000000600082015250565b60006119fc600a836110b0565b9150611a07826119c6565b602082019050919050565b60006020820190508181036000830152611a2b816119ef565b9050919050565b7f4e487b7100000000000000000000000000000000000000000000000000000000600052603260045260246000fd5b7f596f752063616e206f6e6c792075706461746520796f7572206f776e2067726160008201527f6465730000000000000000000000000000000000000000000000000000000000602082015250565b6000611abd6023836110b0565b9150611ac882611a61565b604082019050919050565b60006020820190508181036000830152611aec81611ab0565b9050919050565b600081549050611b028161167c565b9050919050565b818103611b17575050611bef565b611b2082611af3565b67ffffffffffffffff811115611b3957611b38611719565b5b611b43825461167c565b611b4e828285611867565b6000601f831160018114611b7d5760008415611b6b578287015490505b611b7585826118d8565b865550611be8565b601f198416611b8b87611748565b9650611b9686611748565b60005b82811015611bbe57848901548255600182019150600185019450602081019050611b99565b86831015611bdb5784890154611bd7601f8916826118ba565b8355505b6001600288020188555050505b5050505050505b565b600082905092915050565b611c068383611bf1565b67ffffffffffffffff811115611c1f57611c1e611719565b5b611c29825461167c565b611c34828285611867565b6000601f831160018114611c635760008415611c51578287013590505b611c5b85826118d8565b865550611cc3565b601f198416611c7186611748565b60005b82811015611c9957848901358255600182019150602085019450602081019050611c74565b86831015611cb65784890135611cb2601f8916826118ba565b8355505b6001600288020188555050505b50505050505050565b600081905092915050565b6000611ce2826110a5565b611cec8185611ccc565b9350611cfc8185602086016110c1565b80840191505092915050565b6000819050919050565b611d23611d1e82611029565b611d08565b82525050565b60008160601b9050919050565b6000611d4182611d29565b9050919050565b6000611d5382611d36565b9050919050565b611d6b611d6682611164565b611d48565b82525050565b6000611d7d8289611cd7565b9150611d898288611cd7565b9150611d958287611d12565b602082019150611da58286611d5a565b601482019150611db58285611d5a565b601482019150611dc58284611d12565b602082019150819050979650505050505050565b7f4772616465206e6f7420666f756e640000000000000000000000000000000000600082015250565b6000611e0f600f836110b0565b9150611e1a82611dd9565b602082019050919050565b60006020820190508181036000830152611e3e81611e02565b905091905056fea264697066735822122039c97cd57221f9bbf025c45b462c2e0286c288fb339ae04beb860ccd15f07cd164736f6c63430008180033",
  "linkReferences": {},
  "deployedLinkReferences": {}
}