{
  "_format": "hh-sol-artifact-1",
  "contractName": "GradeRegistry",
  "sourceName": "contracts/GradeRegistry.sol",
  "abi": [
    {
      "inputs": [],
      "stateMutability": "nonpayable",
      "type": "constructor"
    },
    {
      "inputs": [],
      "name": "getGrades",
      "outputs": [
        {
          "components": [
            {
              "internalType": "string",
              "name": "student",
              "type": "string"
            },
            {
              "internalType": "string",
              "name": "discipline",
              "type": "string"
            },
            {
              "internalType": "uint256",
              "name": "grade",
              "type": "uint256"
            },
            {
              "internalType": "uint256",
              "name": "timestamp",
              "type": "uint256"
            },
            {
              "internalType": "address",
              "name": "document",
              "type": "address"
            },
            {
              "internalType": "address",
              "name": "from",
              "type": "address"
            }
          ],
          "internalType": "struct GradeRegistry.Grade[]",
          "name": "",
          "type": "tuple[]"
        }
      ],
      "stateMutability": "view",
      "type": "function"
    },
    {
      "inputs": [
        {
          "internalType": "string",
          "name": "student",
          "type": "string"
        },
        {
          "internalType": "string",
          "name": "discipline",
          "type": "string"
        },
        {
          "internalType": "uint256",
          "name": "grade",
          "type": "uint256"
        },
        {
          "internalType": "address",
          "name": "document",
          "type": "address"
        }
      ],
      "name": "submitGradeWithFee",
      "outputs": [],
      "stateMutability": "payable",
      "type": "function"
    }
  ],
  "bytecode": "0x608060405234801561001057600080fd5b5033600160006101000a81548173ffffffffffffffffffffffffffffffffffffffff021916908373ffffffffffffffffffffffffffffffffffffffff160217905550610cd4806100616000396000f3fe6080604052600436106100295760003560e01c80634f6a2c731461002e578063b77ea2d71461004a575b600080fd5b6100486004803603810190610043919061064b565b610075565b005b34801561005657600080fd5b5061005f610305565b60405161006c91906108f2565b60405180910390f35b600034116100b8576040517f08c379a00000000000000000000000000000000000000000000000000000000081526004016100af90610971565b60405180910390fd5b600160009054906101000a900473ffffffffffffffffffffffffffffffffffffffff1673ffffffffffffffffffffffffffffffffffffffff166108fc349081150290604051600060405180830381858888f19350505050158015610120573d6000803e3d6000fd5b5060006040518060c0016040528088888080601f016020809104026020016040519081016040528093929190818152602001838380828437600081840152601f19601f82011690508083019250505050505050815260200186868080601f016020809104026020016040519081016040528093929190818152602001838380828437600081840152601f19601f8201169050808301925050505050505081526020018481526020014281526020018373ffffffffffffffffffffffffffffffffffffffff1681526020013373ffffffffffffffffffffffffffffffffffffffff16815250908060018154018082558091505060019003906000526020600020906006020160009091909190915060008201518160000190816102429190610bcc565b5060208201518160010190816102589190610bcc565b50604082015181600201556060820151816003015560808201518160040160006101000a81548173ffffffffffffffffffffffffffffffffffffffff021916908373ffffffffffffffffffffffffffffffffffffffff16021790555060a08201518160050160006101000a81548173ffffffffffffffffffffffffffffffffffffffff021916908373ffffffffffffffffffffffffffffffffffffffff1602179055505050505050505050565b60606000805480602002602001604051908101604052809291908181526020016000905b8282101561053f57838290600052602060002090600602016040518060c001604052908160008201805461035c906109ef565b80601f0160208091040260200160405190810160405280929190818152602001828054610388906109ef565b80156103d55780601f106103aa576101008083540402835291602001916103d5565b820191906000526020600020905b8154815290600101906020018083116103b857829003601f168201915b505050505081526020016001820180546103ee906109ef565b80601f016020809104026020016040519081016040528092919081815260200182805461041a906109ef565b80156104675780601f1061043c57610100808354040283529160200191610467565b820191906000526020600020905b81548152906001019060200180831161044a57829003601f168201915b5050505050815260200160028201548152602001600382015481526020016004820160009054906101000a900473ffffffffffffffffffffffffffffffffffffffff1673ffffffffffffffffffffffffffffffffffffffff1673ffffffffffffffffffffffffffffffffffffffff1681526020016005820160009054906101000a900473ffffffffffffffffffffffffffffffffffffffff1673ffffffffffffffffffffffffffffffffffffffff1673ffffffffffffffffffffffffffffffffffffffff168152505081526020019060010190610329565b50505050905090565b600080fd5b600080fd5b600080fd5b600080fd5b600080fd5b60008083601f84011261057757610576610552565b5b8235905067ffffffffffffffff81111561059457610593610557565b5b6020830191508360018202830111156105b0576105af61055c565b5b9250929050565b6000819050919050565b6105ca816105b7565b81146105d557600080fd5b50565b6000813590506105e7816105c1565b92915050565b600073ffffffffffffffffffffffffffffffffffffffff82169050919050565b6000610618826105ed565b9050919050565b6106288161060d565b811461063357600080fd5b50565b6000813590506106458161061f565b92915050565b6000806000806000806080878903121561066857610667610548565b5b600087013567ffffffffffffffff8111156106865761068561054d565b5b61069289828a01610561565b9650965050602087013567ffffffffffffffff8111156106b5576106b461054d565b5b6106c189828a01610561565b945094505060406106d489828a016105d8565b92505060606106e589828a01610636565b9150509295509295509295565b600081519050919050565b600082825260208201905092915050565b6000819050602082019050919050565b600081519050919050565b600082825260208201905092915050565b60005b8381101561075857808201518184015260208101905061073d565b60008484015250505050565b6000601f19601f8301169050919050565b60006107808261071e565b61078a8185610729565b935061079a81856020860161073a565b6107a381610764565b840191505092915050565b6107b7816105b7565b82525050565b6107c68161060d565b82525050565b600060c08301600083015184820360008601526107e98282610775565b915050602083015184820360208601526108038282610775565b915050604083015161081860408601826107ae565b50606083015161082b60608601826107ae565b50608083015161083e60808601826107bd565b5060a083015161085160a08601826107bd565b508091505092915050565b600061086883836107cc565b905092915050565b6000602082019050919050565b6000610888826106f2565b61089281856106fd565b9350836020820285016108a48561070e565b8060005b858110156108e057848403895281516108c1858261085c565b94506108cc83610870565b925060208a019950506001810190506108a8565b50829750879550505050505092915050565b6000602082019050818103600083015261090c818461087d565b905092915050565b600082825260208201905092915050565b7f506c6561736520706179206d6f7265207468616e203020657468657200000000600082015250565b600061095b601c83610914565b915061096682610925565b602082019050919050565b6000602082019050818103600083015261098a8161094e565b9050919050565b7f4e487b7100000000000000000000000000000000000000000000000000000000600052604160045260246000fd5b7f4e487b7100000000000000000000000000000000000000000000000000000000600052602260045260246000fd5b60006002820490506001821680610a0757607f821691505b602082108103610a1a57610a196109c0565b5b50919050565b60008190508160005260206000209050919050565b60006020601f8301049050919050565b600082821b905092915050565b600060088302610a827fffffffffffffffffffffffffffffffffffffffffffffffffffffffffffffffff82610a45565b610a8c8683610a45565b95508019841693508086168417925050509392505050565b6000819050919050565b6000610ac9610ac4610abf846105b7565b610aa4565b6105b7565b9050919050565b6000819050919050565b610ae383610aae565b610af7610aef82610ad0565b848454610a52565b825550505050565b600090565b610b0c610aff565b610b17818484610ada565b505050565b5b81811015610b3b57610b30600082610b04565b600181019050610b1d565b5050565b601f821115610b8057610b5181610a20565b610b5a84610a35565b81016020851015610b69578190505b610b7d610b7585610a35565b830182610b1c565b50505b505050565b600082821c905092915050565b6000610ba360001984600802610b85565b1980831691505092915050565b6000610bbc8383610b92565b9150826002028217905092915050565b610bd58261071e565b67ffffffffffffffff811115610bee57610bed610991565b5b610bf882546109ef565b610c03828285610b3f565b600060209050601f831160018114610c365760008415610c24578287015190505b610c2e8582610bb0565b865550610c96565b601f198416610c4486610a20565b60005b82811015610c6c57848901518255600182019150602085019450602081019050610c47565b86831015610c895784890151610c85601f891682610b92565b8355505b6001600288020188555050505b50505050505056fea26469706673582212203cd05ce739595c8fc0581197edd2cc12c6b2c81003dd969816242b4b669e72f064736f6c63430008180033",
  "linkReferences": {},
  "deployedLinkReferences": {}
}